{
  "address": "0x97DA24dC8F75C9b8503BCa9814A7C7B82EA02377",
  "abi": [
    {
      "anonymous": false,
      "inputs": [
        {
          "indexed": true,
          "internalType": "address",
          "name": "user",
          "type": "address"
        },
        {
          "indexed": true,
          "internalType": "address",
          "name": "token",
          "type": "address"
        },
        {
          "indexed": false,
          "internalType": "uint256",
          "name": "amount",
          "type": "uint256"
        }
      ],
      "name": "AirdropClaimed",
      "type": "event"
    },
    {
      "anonymous": false,
      "inputs": [
        {
          "indexed": true,
          "internalType": "address",
          "name": "token",
          "type": "address"
        },
        {
          "indexed": false,
          "internalType": "uint256",
          "name": "index",
          "type": "uint256"
        }
      ],
      "name": "NewAirdrop",
      "type": "event"
    },
    {
      "anonymous": false,
      "inputs": [
        {
          "indexed": true,
          "internalType": "address",
          "name": "previousOwner",
          "type": "address"
        },
        {
          "indexed": true,
          "internalType": "address",
          "name": "newOwner",
          "type": "address"
        }
      ],
      "name": "OwnershipTransferred",
      "type": "event"
    },
    {
      "inputs": [],
      "name": "AirdropsCount",
      "outputs": [
        {
          "internalType": "uint256",
          "name": "",
          "type": "uint256"
        }
      ],
      "stateMutability": "view",
      "type": "function"
    },
    {
      "inputs": [
        {
          "components": [
            {
              "internalType": "address",
              "name": "token",
              "type": "address"
            },
            {
              "internalType": "bytes32",
              "name": "root",
              "type": "bytes32"
            },
            {
              "internalType": "string",
              "name": "dataIPFSHash",
              "type": "string"
            }
          ],
          "internalType": "struct MerkleAirdropDistributor.AirdropMetadata",
          "name": "_metadata",
          "type": "tuple"
        }
      ],
      "name": "addAirdrop",
      "outputs": [],
      "stateMutability": "nonpayable",
      "type": "function"
    },
    {
      "inputs": [
        {
          "internalType": "uint256",
          "name": "",
          "type": "uint256"
        }
      ],
      "name": "airdropMetadata",
      "outputs": [
        {
          "internalType": "address",
          "name": "token",
          "type": "address"
        },
        {
          "internalType": "bytes32",
          "name": "root",
          "type": "bytes32"
        },
        {
          "internalType": "string",
          "name": "dataIPFSHash",
          "type": "string"
        }
      ],
      "stateMutability": "view",
      "type": "function"
    },
    {
      "inputs": [
        {
          "internalType": "uint256",
          "name": "_airdropIndex",
          "type": "uint256"
        },
        {
          "internalType": "address",
          "name": "_user",
          "type": "address"
        },
        {
          "internalType": "uint256",
          "name": "_amount",
          "type": "uint256"
        },
        {
          "internalType": "bytes32[]",
          "name": "_merkleProof",
          "type": "bytes32[]"
        }
      ],
      "name": "claim",
      "outputs": [],
      "stateMutability": "nonpayable",
      "type": "function"
    },
    {
      "inputs": [
        {
          "internalType": "address",
          "name": "",
          "type": "address"
        },
        {
          "internalType": "uint256",
          "name": "",
          "type": "uint256"
        }
      ],
      "name": "isAirdropClaimed",
      "outputs": [
        {
          "internalType": "bool",
          "name": "",
          "type": "bool"
        }
      ],
      "stateMutability": "view",
      "type": "function"
    },
    {
      "inputs": [
        {
          "internalType": "uint256",
          "name": "_airdropIndex",
          "type": "uint256"
        },
        {
          "internalType": "address",
          "name": "_user",
          "type": "address"
        },
        {
          "internalType": "uint256",
          "name": "_amount",
          "type": "uint256"
        },
        {
          "internalType": "bytes32[]",
          "name": "_merkleProof",
          "type": "bytes32[]"
        }
      ],
      "name": "isPartOfMerkleTree",
      "outputs": [
        {
          "internalType": "bool",
          "name": "",
          "type": "bool"
        }
      ],
      "stateMutability": "view",
      "type": "function"
    },
    {
      "inputs": [],
      "name": "owner",
      "outputs": [
        {
          "internalType": "address",
          "name": "",
          "type": "address"
        }
      ],
      "stateMutability": "view",
      "type": "function"
    },
    {
      "inputs": [],
      "name": "renounceOwnership",
      "outputs": [],
      "stateMutability": "nonpayable",
      "type": "function"
    },
    {
      "inputs": [],
      "name": "togglePause",
      "outputs": [],
      "stateMutability": "nonpayable",
      "type": "function"
    },
    {
      "inputs": [
        {
          "internalType": "address",
          "name": "newOwner",
          "type": "address"
        }
      ],
      "name": "transferOwnership",
      "outputs": [],
      "stateMutability": "nonpayable",
      "type": "function"
    }
  ],
  "transactionHash": "0x1965963f7efbc3a5dc96f09439e16cfe5600d134ae422e8e344e2d473f35445f",
  "args": [],
  "solcInputHash": "406e0be148d7400650870587428855d9",
  "bytecode": "0x608060405234801561001057600080fd5b5061001a3361001f565b61006f565b600080546001600160a01b038381166001600160a01b0319831681178455604051919092169283917f8be0079c531659141344cd1fd0a4f28419497f9722a3daafe3b4186f6b6457e09190a35050565b610fdd8061007e6000396000f3fe608060405234801561001057600080fd5b506004361061009e5760003560e01c8063715018a611610066578063715018a6146101415780638da5cb5b14610149578063ac832e9a14610164578063c4ae316814610177578063f2fde38b1461017f57600080fd5b806306a55a02146100a35780631a1b83e1146100e6578063255b7212146100f95780632b414f8f1461011b5780632e7ba6ef1461012c575b600080fd5b6100d16100b1366004610bd6565b600260209081526000928352604080842090915290825290205460ff1681565b60405190151581526020015b60405180910390f35b6100d16100f4366004610d17565b610192565b61010c610107366004610cfe565b61027f565b6040516100dd93929190610df6565b6001546040519081526020016100dd565b61013f61013a366004610d17565b610348565b005b61013f61051f565b6000546040516001600160a01b0390911681526020016100dd565b61013f610172366004610c22565b610555565b61013f61068e565b61013f61018d366004610bbb565b6106d9565b60008086600188815481106101a9576101a9610f7b565b6000918252602091829020600391909102015460408051928301939093526bffffffffffffffffffffffff19606091821b81169383019390935288901b90911660548201526068810186905260880160405160208183030381529060405280519060200120905061027484848080602002602001604051908101604052809392919081815260200183836020028082843760009201919091525050600180549092508b9150811061025c5761025c610f7b565b90600052602060002090600302016001015483610774565b979650505050505050565b6001818154811061028f57600080fd5b60009182526020909120600390910201805460018201546002830180546001600160a01b0390931694509092916102c590610f0f565b80601f01602080910402602001604051908101604052809291908181526020018280546102f190610f0f565b801561033e5780601f106103135761010080835404028352916020019161033e565b820191906000526020600020905b81548152906001019060200180831161032157829003601f168201915b5050505050905083565b600054600160a01b900460ff16156103905760405162461bcd60e51b815260206004820152600660248201526514185d5cd95960d21b60448201526064015b60405180910390fd5b6001600160a01b038416600090815260026020908152604080832088845290915290205460ff16156104045760405162461bcd60e51b815260206004820152601760248201527f41697264726f7020616c726561647920636c61696d65640000000000000000006044820152606401610387565b60006001868154811061041957610419610f7b565b60009182526020909120600390910201546001600160a01b031690506104428686868686610192565b61048e5760405162461bcd60e51b815260206004820152601a60248201527f4d65726b6c6520766572696669636174696f6e206661696c65640000000000006044820152606401610387565b6001600160a01b0380861660009081526002602090815260408083208a84529091529020805460ff191660011790556104ca9082168686610825565b806001600160a01b0316856001600160a01b03167fb0a0840c7bb9b6ecca130f40e5b8f2158da27eb5c5c9432c8f424a520c8b55d18660405161050f91815260200190565b60405180910390a3505050505050565b6000546001600160a01b031633146105495760405162461bcd60e51b815260040161038790610e39565b610553600061087c565b565b6000546001600160a01b0316331461057f5760405162461bcd60e51b815260040161038790610e39565b60018054808201825560009190915281517fb10e2d527612073b26eecdfd717e6a320cf44b4afac2b0732d9fcbe2b7fa0cf6600390920291820180546001600160a01b0319166001600160a01b039092169190911781556020808401517fb10e2d527612073b26eecdfd717e6a320cf44b4afac2b0732d9fcbe2b7fa0cf7840155604084015180518594610639937fb10e2d527612073b26eecdfd717e6a320cf44b4afac2b0732d9fcbe2b7fa0cf8909101920190610b06565b50508151600180546001600160a01b0390921692507ffad3b22ecc9d567780a5dcd9b5e7cf6cabde294edc9241c68d9c704afd1b2b879161067a9190610ec8565b60405190815260200160405180910390a250565b6000546001600160a01b031633146106b85760405162461bcd60e51b815260040161038790610e39565b6000805460ff60a01b198116600160a01b9182900460ff1615909102179055565b6000546001600160a01b031633146107035760405162461bcd60e51b815260040161038790610e39565b6001600160a01b0381166107685760405162461bcd60e51b815260206004820152602660248201527f4f776e61626c653a206e6577206f776e657220697320746865207a65726f206160448201526564647265737360d01b6064820152608401610387565b6107718161087c565b50565b600081815b855181101561081857600086828151811061079657610796610f7b565b602002602001015190508083116107d8576040805160208101859052908101829052606001604051602081830303815290604052805190602001209250610805565b60408051602081018390529081018490526060016040516020818303038152906040528051906020012092505b508061081081610f4a565b915050610779565b50831490505b9392505050565b604080516001600160a01b038416602482015260448082018490528251808303909101815260649091019091526020810180516001600160e01b031663a9059cbb60e01b1790526108779084906108cc565b505050565b600080546001600160a01b038381166001600160a01b0319831681178455604051919092169283917f8be0079c531659141344cd1fd0a4f28419497f9722a3daafe3b4186f6b6457e09190a35050565b6000610921826040518060400160405280602081526020017f5361666545524332303a206c6f772d6c6576656c2063616c6c206661696c6564815250856001600160a01b031661099e9092919063ffffffff16565b805190915015610877578080602001905181019061093f9190610c00565b6108775760405162461bcd60e51b815260206004820152602a60248201527f5361666545524332303a204552433230206f7065726174696f6e20646964206e6044820152691bdd081cdd58d8d9595960b21b6064820152608401610387565b60606109ad84846000856109b5565b949350505050565b606082471015610a165760405162461bcd60e51b815260206004820152602660248201527f416464726573733a20696e73756666696369656e742062616c616e636520666f6044820152651c8818d85b1b60d21b6064820152608401610387565b843b610a645760405162461bcd60e51b815260206004820152601d60248201527f416464726573733a2063616c6c20746f206e6f6e2d636f6e74726163740000006044820152606401610387565b600080866001600160a01b03168587604051610a809190610dda565b60006040518083038185875af1925050503d8060008114610abd576040519150601f19603f3d011682016040523d82523d6000602084013e610ac2565b606091505b509150915061027482828660608315610adc57508161081e565b825115610aec5782518084602001fd5b8160405162461bcd60e51b81526004016103879190610e26565b828054610b1290610f0f565b90600052602060002090601f016020900481019282610b345760008555610b7a565b82601f10610b4d57805160ff1916838001178555610b7a565b82800160010185558215610b7a579182015b82811115610b7a578251825591602001919060010190610b5f565b50610b86929150610b8a565b5090565b5b80821115610b865760008155600101610b8b565b80356001600160a01b0381168114610bb657600080fd5b919050565b600060208284031215610bcd57600080fd5b61081e82610b9f565b60008060408385031215610be957600080fd5b610bf283610b9f565b946020939093013593505050565b600060208284031215610c1257600080fd5b8151801515811461081e57600080fd5b60006020808385031215610c3557600080fd5b823567ffffffffffffffff80821115610c4d57600080fd5b9084019060608287031215610c6157600080fd5b610c69610e6e565b610c7283610b9f565b81528383013584820152604083013582811115610c8e57600080fd5b80840193505086601f840112610ca357600080fd5b823582811115610cb557610cb5610f91565b610cc7601f8201601f19168601610e97565b92508083528785828601011115610cdd57600080fd5b80858501868501376000908301909401939093526040830152509392505050565b600060208284031215610d1057600080fd5b5035919050565b600080600080600060808688031215610d2f57600080fd5b85359450610d3f60208701610b9f565b935060408601359250606086013567ffffffffffffffff80821115610d6357600080fd5b818801915088601f830112610d7757600080fd5b813581811115610d8657600080fd5b8960208260051b8501011115610d9b57600080fd5b9699959850939650602001949392505050565b60008151808452610dc6816020860160208601610edf565b601f01601f19169290920160200192915050565b60008251610dec818460208701610edf565b9190910192915050565b60018060a01b0384168152826020820152606060408201526000610e1d6060830184610dae565b95945050505050565b60208152600061081e6020830184610dae565b6020808252818101527f4f776e61626c653a2063616c6c6572206973206e6f7420746865206f776e6572604082015260600190565b6040516060810167ffffffffffffffff81118282101715610e9157610e91610f91565b60405290565b604051601f8201601f1916810167ffffffffffffffff81118282101715610ec057610ec0610f91565b604052919050565b600082821015610eda57610eda610f65565b500390565b60005b83811015610efa578181015183820152602001610ee2565b83811115610f09576000848401525b50505050565b600181811c90821680610f2357607f821691505b60208210811415610f4457634e487b7160e01b600052602260045260246000fd5b50919050565b6000600019821415610f5e57610f5e610f65565b5060010190565b634e487b7160e01b600052601160045260246000fd5b634e487b7160e01b600052603260045260246000fd5b634e487b7160e01b600052604160045260246000fdfea26469706673582212203a348c51fa1850072d20a278dd66ce92ff2f533490007db4cab0f812df9a54ca64736f6c63430008070033",
  "devdoc": {
    "kind": "dev",
    "methods": {
      "owner()": {
        "details": "Returns the address of the current owner."
      },
      "renounceOwnership()": {
        "details": "Leaves the contract without owner. It will not be possible to call `onlyOwner` functions anymore. Can only be called by the current owner. NOTE: Renouncing ownership will leave the contract without an owner, thereby removing any functionality that is only available to the owner."
      },
      "transferOwnership(address)": {
        "details": "Transfers ownership of the contract to a new account (`newOwner`). Can only be called by the current owner."
      }
    },
    "version": 1
  },
  "userdoc": {
    "kind": "user",
    "methods": {},
    "version": 1
  },
  "storageLayout": {
    "storage": [
      {
        "astId": 7,
        "contract": "contracts/MerkleAirdropDistributor.sol:MerkleAirdropDistributor",
        "label": "_owner",
        "offset": 0,
        "slot": "0",
        "type": "t_address"
      },
      {
        "astId": 1382,
        "contract": "contracts/MerkleAirdropDistributor.sol:MerkleAirdropDistributor",
        "label": "isPaused",
        "offset": 20,
        "slot": "0",
        "type": "t_bool"
      },
      {
        "astId": 1393,
        "contract": "contracts/MerkleAirdropDistributor.sol:MerkleAirdropDistributor",
        "label": "airdropMetadata",
        "offset": 0,
        "slot": "1",
        "type": "t_array(t_struct(AirdropMetadata)1389_storage)dyn_storage"
      },
      {
        "astId": 1399,
        "contract": "contracts/MerkleAirdropDistributor.sol:MerkleAirdropDistributor",
        "label": "isAirdropClaimed",
        "offset": 0,
        "slot": "2",
        "type": "t_mapping(t_address,t_mapping(t_uint256,t_bool))"
      }
    ],
    "types": {
      "t_address": {
        "encoding": "inplace",
        "label": "address",
        "numberOfBytes": "20"
      },
      "t_array(t_struct(AirdropMetadata)1389_storage)dyn_storage": {
        "base": "t_struct(AirdropMetadata)1389_storage",
        "encoding": "dynamic_array",
        "label": "struct MerkleAirdropDistributor.AirdropMetadata[]",
        "numberOfBytes": "32"
      },
      "t_bool": {
        "encoding": "inplace",
        "label": "bool",
        "numberOfBytes": "1"
      },
      "t_bytes32": {
        "encoding": "inplace",
        "label": "bytes32",
        "numberOfBytes": "32"
      },
      "t_mapping(t_address,t_mapping(t_uint256,t_bool))": {
        "encoding": "mapping",
        "key": "t_address",
        "label": "mapping(address => mapping(uint256 => bool))",
        "numberOfBytes": "32",
        "value": "t_mapping(t_uint256,t_bool)"
      },
      "t_mapping(t_uint256,t_bool)": {
        "encoding": "mapping",
        "key": "t_uint256",
        "label": "mapping(uint256 => bool)",
        "numberOfBytes": "32",
        "value": "t_bool"
      },
      "t_string_storage": {
        "encoding": "bytes",
        "label": "string",
        "numberOfBytes": "32"
      },
      "t_struct(AirdropMetadata)1389_storage": {
        "encoding": "inplace",
        "label": "struct MerkleAirdropDistributor.AirdropMetadata",
        "members": [
          {
            "astId": 1384,
            "contract": "contracts/MerkleAirdropDistributor.sol:MerkleAirdropDistributor",
            "label": "token",
            "offset": 0,
            "slot": "0",
            "type": "t_address"
          },
          {
            "astId": 1386,
            "contract": "contracts/MerkleAirdropDistributor.sol:MerkleAirdropDistributor",
            "label": "root",
            "offset": 0,
            "slot": "1",
            "type": "t_bytes32"
          },
          {
            "astId": 1388,
            "contract": "contracts/MerkleAirdropDistributor.sol:MerkleAirdropDistributor",
            "label": "dataIPFSHash",
            "offset": 0,
            "slot": "2",
            "type": "t_string_storage"
          }
        ],
        "numberOfBytes": "96"
      },
      "t_uint256": {
        "encoding": "inplace",
        "label": "uint256",
        "numberOfBytes": "32"
      }
    }
  }
}